{
  "_format": "hh-sol-artifact-1",
  "contractName": "ToDoList",
  "sourceName": "contracts/ToDoList.sol",
  "abi": [
    {
      "anonymous": false,
      "inputs": [
        {
          "indexed": false,
          "internalType": "uint256",
          "name": "id",
          "type": "uint256"
        }
      ],
      "name": "ToDoItemId",
      "type": "event"
    },
    {
      "inputs": [
        {
          "internalType": "string",
          "name": "_content",
          "type": "string"
        }
      ],
      "name": "createTodo",
      "outputs": [],
      "stateMutability": "nonpayable",
      "type": "function"
    },
    {
      "inputs": [
        {
          "internalType": "uint256",
          "name": "_id",
          "type": "uint256"
        }
      ],
      "name": "deleteToDoItem",
      "outputs": [],
      "stateMutability": "nonpayable",
      "type": "function"
    },
    {
      "inputs": [],
      "name": "getActiveToDo",
      "outputs": [
        {
          "components": [
            {
              "internalType": "uint256",
              "name": "itemId",
              "type": "uint256"
            },
            {
              "internalType": "string",
              "name": "content",
              "type": "string"
            },
            {
              "internalType": "bool",
              "name": "completed",
              "type": "bool"
            },
            {
              "internalType": "bool",
              "name": "deleted",
              "type": "bool"
            }
          ],
          "internalType": "struct ToDoList.ToDoItem[]",
          "name": "",
          "type": "tuple[]"
        }
      ],
      "stateMutability": "view",
      "type": "function"
    },
    {
      "inputs": [],
      "name": "getCompletedToDo",
      "outputs": [
        {
          "components": [
            {
              "internalType": "uint256",
              "name": "itemId",
              "type": "uint256"
            },
            {
              "internalType": "string",
              "name": "content",
              "type": "string"
            },
            {
              "internalType": "bool",
              "name": "completed",
              "type": "bool"
            },
            {
              "internalType": "bool",
              "name": "deleted",
              "type": "bool"
            }
          ],
          "internalType": "struct ToDoList.ToDoItem[]",
          "name": "",
          "type": "tuple[]"
        }
      ],
      "stateMutability": "view",
      "type": "function"
    },
    {
      "inputs": [],
      "name": "getToDos",
      "outputs": [
        {
          "components": [
            {
              "internalType": "uint256",
              "name": "itemId",
              "type": "uint256"
            },
            {
              "internalType": "string",
              "name": "content",
              "type": "string"
            },
            {
              "internalType": "bool",
              "name": "completed",
              "type": "bool"
            },
            {
              "internalType": "bool",
              "name": "deleted",
              "type": "bool"
            }
          ],
          "internalType": "struct ToDoList.ToDoItem[]",
          "name": "",
          "type": "tuple[]"
        }
      ],
      "stateMutability": "view",
      "type": "function"
    },
    {
      "inputs": [
        {
          "internalType": "uint256",
          "name": "",
          "type": "uint256"
        }
      ],
      "name": "toDoItems",
      "outputs": [
        {
          "internalType": "uint256",
          "name": "itemId",
          "type": "uint256"
        },
        {
          "internalType": "string",
          "name": "content",
          "type": "string"
        },
        {
          "internalType": "bool",
          "name": "completed",
          "type": "bool"
        },
        {
          "internalType": "bool",
          "name": "deleted",
          "type": "bool"
        }
      ],
      "stateMutability": "view",
      "type": "function"
    },
    {
      "inputs": [
        {
          "internalType": "uint256",
          "name": "_id",
          "type": "uint256"
        },
        {
          "internalType": "string",
          "name": "_content",
          "type": "string"
        }
      ],
      "name": "updateToDoContent",
      "outputs": [],
      "stateMutability": "nonpayable",
      "type": "function"
    },
    {
      "inputs": [
        {
          "internalType": "uint256",
          "name": "_id",
          "type": "uint256"
        }
      ],
      "name": "updateToDoStatus",
      "outputs": [],
      "stateMutability": "nonpayable",
      "type": "function"
    }
  ],
  "bytecode": "0x608060405260008055600060015560006002556000600355600060045534801561002857600080fd5b50610ecd806100386000396000f3fe608060405234801561001057600080fd5b50600436106100885760003560e01c8063a6a346ef1161005b578063a6a346ef146100db578063cfc3b022146100e3578063e34f1221146100f6578063fbae1ac21461010957600080fd5b80633e3e2bec1461008d57806349fa7767146100ab57806385e23343146100b35780639b4f84cd146100c8575b600080fd5b61009561012c565b6040516100a29190610ac6565b60405180910390f35b610095610322565b6100c66100c1366004610bf8565b61053e565b005b6100c66100d6366004610c3f565b610593565b61009561064f565b6100c66100f1366004610c3f565b61086a565b6100c6610104366004610c58565b6108d3565b61011c610117366004610c3f565b6109c9565b6040516100a29493929190610c95565b60606000806004546001546101419190610cdc565b67ffffffffffffffff81111561015957610159610b55565b6040519080825280602002602001820160405280156101b957816020015b6101a6604051806080016040528060008152602001606081526020016000151581526020016000151581525090565b8152602001906001900390816101775790505b50905060005b60015481101561031b5760006101d6826001610cf5565b600081815260056020526040902060020154909150610100900460ff16610308576000600560008381526020019081526020016000206040518060800160405290816000820154815260200160018201805461023190610d08565b80601f016020809104026020016040519081016040528092919081815260200182805461025d90610d08565b80156102aa5780601f1061027f576101008083540402835291602001916102aa565b820191906000526020600020905b81548152906001019060200180831161028d57829003601f168201915b50505091835250506002919091015460ff80821615156020840152610100909104161515604090910152845190915081908590879081106102ed576102ed610d42565b6020026020010181905250848061030390610d58565b955050505b508061031381610d58565b9150506101bf565b5092915050565b606060008060045460025460015461033a9190610cdc565b6103449190610cdc565b67ffffffffffffffff81111561035c5761035c610b55565b6040519080825280602002602001820160405280156103bc57816020015b6103a9604051806080016040528060008152602001606081526020016000151581526020016000151581525090565b81526020019060019003908161037a5790505b50905060005b60015481101561031b5760006103d9826001610cf5565b60008181526005602052604090206002015490915060ff161580156104155750600081815260056020526040902060020154610100900460ff16155b1561052b576000600560008381526020019081526020016000206040518060800160405290816000820154815260200160018201805461045490610d08565b80601f016020809104026020016040519081016040528092919081815260200182805461048090610d08565b80156104cd5780601f106104a2576101008083540402835291602001916104cd565b820191906000526020600020905b8154815290600101906020018083116104b057829003601f168201915b50505091835250506002919091015460ff808216151560208401526101009091041615156040909101528451909150819085908790811061051057610510610d42565b6020026020010181905250848061052690610d58565b955050505b508061053681610d58565b9150506103c2565b60008281526005602052604090206001810161055a8382610dc0565b506040518381527f461ba114299aeb946b99c5f00f280ab3a53c988660a5ebc70acc9bd684ec94ab9060200160405180910390a1505050565b600081815260056020526040902060028101805460ff19811660ff9182161590811790925516156105ed57600280549060006105ce83610d58565b9091555050600380549060006105e383610e80565b9190505550610618565b600280549060006105fd83610e80565b90915550506003805490600061061283610d58565b91905055505b6040518281527f461ba114299aeb946b99c5f00f280ab3a53c988660a5ebc70acc9bd684ec94ab9060200160405180910390a15050565b60606000806004546003546001546106679190610cdc565b6106719190610cdc565b67ffffffffffffffff81111561068957610689610b55565b6040519080825280602002602001820160405280156106e957816020015b6106d6604051806080016040528060008152602001606081526020016000151581526020016000151581525090565b8152602001906001900390816106a75790505b50905060005b60015481101561031b576000610706826001610cf5565b60008181526005602052604090206002015490915060ff1680156107415750600081815260056020526040902060020154610100900460ff16155b15610857576000600560008381526020019081526020016000206040518060800160405290816000820154815260200160018201805461078090610d08565b80601f01602080910402602001604051908101604052809291908181526020018280546107ac90610d08565b80156107f95780601f106107ce576101008083540402835291602001916107f9565b820191906000526020600020905b8154815290600101906020018083116107dc57829003601f168201915b50505091835250506002919091015460ff808216151560208401526101009091041615156040909101528451909150819085908790811061083c5761083c610d42565b6020026020010181905250848061085290610d58565b955050505b508061086281610d58565b9150506106ef565b600081815260056020526040902060028101805461ff001981166101001790915560ff16156108ad57600280549060006108a383610e80565b91905055506108c3565b600380549060006108bd83610e80565b91905055505b6004805490600061061283610d58565b6000805490806108e283610d58565b9091555050600180549060006108f783610d58565b90915550506003805490600061090c83610d58565b909155505060408051608081018252600080548083526020808401868152848601849052606085018490529183526005905292902081518155915190919060018201906109599082610dc0565b50604082810151600292909201805460609094015161ffff1990941692151561ff001916929092176101009315159390930292909217905560005490519081527f461ba114299aeb946b99c5f00f280ab3a53c988660a5ebc70acc9bd684ec94ab9060200160405180910390a150565b600560205260009081526040902080546001820180549192916109eb90610d08565b80601f0160208091040260200160405190810160405280929190818152602001828054610a1790610d08565b8015610a645780601f10610a3957610100808354040283529160200191610a64565b820191906000526020600020905b815481529060010190602001808311610a4757829003601f168201915b5050506002909301549192505060ff8082169161010090041684565b6000815180845260005b81811015610aa657602081850181015186830182015201610a8a565b506000602082860101526020601f19601f83011685010191505092915050565b60006020808301818452808551808352604092508286019150828160051b87010184880160005b83811015610b4757603f19898403018552815160808151855288820151818a870152610b1b82870182610a80565b838a01511515878b01526060938401511515939096019290925250509386019390860190600101610aed565b509098975050505050505050565b634e487b7160e01b600052604160045260246000fd5b600082601f830112610b7c57600080fd5b813567ffffffffffffffff80821115610b9757610b97610b55565b604051601f8301601f19908116603f01168101908282118183101715610bbf57610bbf610b55565b81604052838152866020858801011115610bd857600080fd5b836020870160208301376000602085830101528094505050505092915050565b60008060408385031215610c0b57600080fd5b82359150602083013567ffffffffffffffff811115610c2957600080fd5b610c3585828601610b6b565b9150509250929050565b600060208284031215610c5157600080fd5b5035919050565b600060208284031215610c6a57600080fd5b813567ffffffffffffffff811115610c8157600080fd5b610c8d84828501610b6b565b949350505050565b848152608060208201526000610cae6080830186610a80565b93151560408301525090151560609091015292915050565b634e487b7160e01b600052601160045260246000fd5b81810381811115610cef57610cef610cc6565b92915050565b80820180821115610cef57610cef610cc6565b600181811c90821680610d1c57607f821691505b602082108103610d3c57634e487b7160e01b600052602260045260246000fd5b50919050565b634e487b7160e01b600052603260045260246000fd5b600060018201610d6a57610d6a610cc6565b5060010190565b601f821115610dbb57600081815260208120601f850160051c81016020861015610d985750805b601f850160051c820191505b81811015610db757828155600101610da4565b5050505b505050565b815167ffffffffffffffff811115610dda57610dda610b55565b610dee81610de88454610d08565b84610d71565b602080601f831160018114610e235760008415610e0b5750858301515b600019600386901b1c1916600185901b178555610db7565b600085815260208120601f198616915b82811015610e5257888601518255948401946001909101908401610e33565b5085821015610e705787850151600019600388901b60f8161c191681555b5050505050600190811b01905550565b600081610e8f57610e8f610cc6565b50600019019056fea2646970667358221220f7f5051c8b8f82614b848775aad1df9b0989ef757ed91da4a72d6c301cc365f264736f6c63430008130033",
  "linkReferences": {},
  "deployedLinkReferences": {}
}